:020000040800F2
:1000000000040020C1010008A1330008A13300084A
:1000100041230008A1330008A1330008A1330008E0
:10002000A1330008A1330008A1330008615500087E
:10003000A1330008A1330008A1330008C1B90008AA
:10004000A1330008718C0008018E0008518E000851
:10005000A1330008A1330008B1890008018A000813
:10006000518A0008A18A0008F18A0008017C000872
:10007000517C0008A17C0008F17C0008417D00084B
:10008000917D0008E17D0008F1860008F18F0008ED
:100090006190000811910008C1910008418B00088F
:1000A000A1330008A133000821B40008A1330008DF
:1000B00081B50008C1B5000801B60008C19D00085F
:1000C000019F0008A1330008A1330008A1330008F4
:1000D000A1330008A1330008A133000881BA000849
:1000E000D18B0008C18C0008118D0008A1330008D5
:1000F000A133000861B40008A1330008317E000874
:10010000A13300085193000841B60008A13300084C
:10011000A1330008A1330008E1B30008A1330008AF
:10012000817E0008D17E0008217F0008717F0008D1
:10013000C17F0008A1330008618D0008A1330008C9
:10014000A1330008A1330008A133000881AD0008E5
:100150001180000861800008B1800008A133000808
:10016000A1330008A1330008A1330008A13300081F
:10017000B18D0008A1330008D1140008A133000894
:10018000A1330008A1330008A1330008A1330008FF
:10019000A1330008A1330008A1330008A1330008EF
:1001A000A1330008A1330008A1330008A1330008DF
:1001B000A1330008A1330008A1330008A1330008CF
:1001C00072B62E4880F3098840F20000CCF200009D
:1001D0004EF63471CEF20001086040F20000C0F229
:1001E000F0004EF68851CEF2000108604FF000009A
:1001F000E1EE100A4EF63C71CEF2000108600620D6
:1002000080F31488BFF36F8F0BF02AFD4FF0553049
:100210001B491C4A91423CBF41F8040BFAE71A49BA
:10022000164A91423CBF41F8040BFAE71749184AB5
:10023000184B9A423EBF51F8040B42F8040BF8E702
:1002400000201549154A91423CBF41F8040BFAE7DA
:1002500003F08EF8124C134DAC4203DA54F8041B31
:100260008847F9E701F044F80F4C104DAC4203DA2F
:1002700054F8041B8847F9E703F08AB80008002007
:10028000000000200004002000040020B80D010838
:10029000000800201412002018120020804E0020B8
:1002A000C0010008C0010008C0010008C00100082A
:1002B0002DE9F04F2DED108AC1F80CD0D0F80CD0FC
:1002C000BDEC108ABDE8F08F03F0AAF904F0B0F994
:1002D000002383F311882846A047002003F078FF0D
:1002E00004F08EF903F07CF903F09AFD03F098F91D
:1002F00004F09EF900DFFEE70000000000000000AF
:1003000081F0004102E000BF83F0004330B54FEAC6
:1003100041044FEA430594EA050F08BF90EA020F33
:100320001FBF54EA000C55EA020C7FEA645C7FEAC6
:10033000655C00F0E2804FEA5454D4EB5555B8BFE9
:100340006D420CDD2C4480EA020281EA030382EA5A
:10035000000083EA010180EA020281EA0303362DEC
:1003600088BF30BD11F0004F4FEA01314FF4801CBF
:100370004CEA113102D0404261EB410113F0004FD1
:100380004FEA03334CEA133302D0524263EB430388
:1003900094EA050F00F0A780A4F10104D5F1200E26
:1003A0000DDB02FA0EFC22FA05F2801841F1000181
:1003B00003FA0EF2801843FA05F359410EE0A5F155
:1003C00020050EF1200E012A03FA0EFC28BF4CF086
:1003D000020C43FA05F3C01851EBE37101F000453C
:1003E00007D54FF0000EDCF1000C7EEB00006EEB49
:1003F0000101B1F5801F1BD3B1F5001F0CD34908D3
:100400005FEA30004FEA3C0C04F101044FEA445229
:1004100012F5800F80F09A80BCF1004F08BF5FEAB0
:10042000500C50F1000041EB045141EA050130BD90
:100430005FEA4C0C404141EB010111F4801FA4F133
:100440000104E9D191F0000F04BF01460020B1FA88
:1004500081F308BF2033A3F10B03B3F120020CDAC0
:100460000C3208DD02F1140CC2F10C0201FA0CF09E
:1004700021FA02F10CE002F11402D8BFC2F1200C03
:1004800001FA02F120FA0CFCDCBF41EA0C019040B9
:10049000E41AA2BF01EB0451294330BD6FEA040402
:1004A0001F3C1CDA0C340EDC04F11404C4F12002ED
:1004B00020FA04F001FA02F340EA030021FA04F3FF
:1004C00045EA030130BDC4F10C04C4F1200220FA56
:1004D00002F001FA04F340EA0300294630BD21FA94
:1004E00004F0294630BD94F0000F83F4801306BF5A
:1004F00081F480110134013D4EE77FEA645C18BF4E
:100500007FEA655C29D094EA050F08BF90EA020FE4
:1005100005D054EA000C04BF1946104630BD91EADC
:10052000030F1EBF0021002030BD5FEA545C05D1DF
:100530004000494128BF41F0004130BD14F580041E
:100540003CBF01F5801130BD01F0004545F0FE4192
:1005500041F470014FF0000030BD7FEA645C1ABFC7
:10056000194610467FEA655C1CBF0B46024650EAFE
:10057000013406BF52EA033591EA030F41F400212A
:1005800030BD00BF90F0000F04BF0021704730B5B0
:100590004FF4806404F132044FF000054FF0000185
:1005A00050E700BF90F0000F04BF0021704730B546
:1005B0004FF4806404F1320410F0004548BF40421B
:1005C0004FF000013EE700BF42004FEAE2014FEA70
:1005D00031014FEA02701FBF12F07F4393F07F4F4B
:1005E00081F06051704732F07F4208BF704793F04E
:1005F0007F4F04BF41F40021704730B54FF4607461
:1006000001F0004521F000411CE700BF50EA010263
:1006100008BF704730B54FF000050AE050EA01020C
:1006200008BF704730B511F0004502D5404261EB7C
:1006300041014FF4806404F132045FEA915C3FF4BD
:10064000D8AE4FF003025FEADC0C18BF03325FEA5A
:10065000DC0C18BF033202EBDC02C2F1200300FA0B
:1006600003FC20FA02F001FA03FE40EA0E0021FA30
:1006700002F11444BDE600BF0000000000000000CD
:1006800070B54FF0FF0C4CF4E06C1CEA11541DBF28
:100690001CEA135594EA0C0F95EA0C0F00F0DEF8F3
:1006A0002C4481EA030621EA4C5123EA4C5350EAD8
:1006B000013518BF52EA033541F4801143F4801329
:1006C00038D0A0FB02CE4FF00005E1FB02E506F0BA
:1006D0000042E0FB03E54FF00006E1FB03569CF00F
:1006E000000F18BF4EF0010EA4F1FF04B6F5007F15
:1006F00064F5407404D25FEA4E0E6D4146EB060687
:1007000042EAC62141EA55514FEAC52040EA5E500F
:100710004FEACE2EB4F1FD0C88BFBCF5E06F1ED8B9
:10072000BEF1004F08BF5FEA500E50F1000041EBF0
:10073000045170BD06F0004646EA010140EA02009D
:1007400081EA0301B4EB5C04C2BFD4EB0C0541EABF
:10075000045170BD41F480114FF0000E013C00F3D4
:10076000AB8014F1360FDEBF002001F0004170BDF8
:10077000C4F10004203C35DA0C341BDC04F1140411
:10078000C4F1200500FA05F320FA04F001FA05F29D
:1007900040EA020001F0004221F0004110EBD3706A
:1007A00021FA04F642EB06015EEA430E08BF20EA96
:1007B000D37070BDC4F10C04C4F1200500FA04F339
:1007C00020FA05F001FA04F240EA020001F00041CB
:1007D00010EBD37041F100015EEA430E08BF20EA3E
:1007E000D37070BDC4F1200500FA05F24EEA020E86
:1007F00020FA04F301FA05F243EA020321FA04F0B5
:1008000001F0004121FA04F220EA020000EBD3706B
:100810005EEA430E08BF20EAD37070BD94F0000F6B
:100820000FD101F00046400041EB010111F4801F9F
:1008300008BF013CF7D041EA060195F0000F18BF50
:10084000704703F00046520043EB030313F4801F8C
:1008500008BF013DF7D043EA0603704794EA0C0F46
:100860000CEA135518BF95EA0C0F0CD050EA41065C
:1008700018BF52EA4306D1D181EA030101F00041D9
:100880004FF0000070BD50EA410606BF1046194601
:1008900052EA430619D094EA0C0F02D150EA01360D
:1008A00013D195EA0C0F05D152EA03361CBF10464E
:1008B00019460AD181EA030101F0004141F0FE41ED
:1008C00041F470014FF0000070BD41F0FE4141F471
:1008D000780170BD70B54FF0FF0C4CF4E06C1CEA71
:1008E00011541DBF1CEA135594EA0C0F95EA0C0F26
:1008F00000F0A7F8A4EB050481EA030E52EA0335E1
:100900004FEA013100F088804FEA03334FF0805501
:1009100045EA131343EA12634FEA022245EA11152E
:1009200045EA10654FEA00260EF000419D4208BFDF
:10093000964244F1FD0404F5407402D25B084FEA8C
:100940003202B61A65EB03055B084FEA32024FF438
:1009500080104FF4002CB6EB020E75EB030E22BF95
:10096000B61A754640EA0C005B084FEA3202B6EB55
:10097000020E75EB030E22BFB61A754640EA5C0004
:100980005B084FEA3202B6EB020E75EB030E22BF94
:10099000B61A754640EA9C005B084FEA3202B6EB95
:1009A000020E75EB030E22BFB61A754640EADC0054
:1009B00055EA060E18D04FEA051545EA16754FEAB6
:1009C00006164FEAC30343EA52734FEAC2025FEAD4
:1009D0001C1CC0D111F4801F0BD141EA00014FF063
:1009E00000004FF0004CB6E711F4801F04BF014334
:1009F0000020B4F1FD0C88BFBCF5E06F3FF6AFAE50
:100A0000B5EB030C04BFB6EB020C5FEA500C50F1DF
:100A1000000041EB045170BD0EF0004E4EEA113162
:100A200014EB5C04C2BFD4EB0C0541EA045170BD69
:100A300041F480114FF0000E013C90E645EA060EAD
:100A40008DE60CEA135594EA0C0F08BF95EA0C0FDB
:100A50003FF43BAF94EA0C0F0AD150EA01347FF423
:100A600034AF95EA0C0F7FF425AF104619462CE7FA
:100A700095EA0C0F06D152EA03353FF4FDAE10465D
:100A8000194622E750EA410618BF52EA43067FF4AE
:100A9000C5AE50EA41047FF40DAF52EA43057FF43E
:100AA000EBAE12E7000000000000000000000000B4
:100AB0004FEA410212F5001215D211D56FF4787386
:100AC000B3EB625212D94FEAC12343F0004343EA29
:100AD000505311F0004F23FA02F018BF4042704704
:100AE0004FF00000704750EA013005D111F000408E
:100AF00008BF6FF0004070474FF00000704700BF24
:100B00004FEA4102B2F1E04324BFB3F5001CDCF12F
:100B1000FE5C0DD901F0004C4FEAC0024CEA507067
:100B2000B2F1004F40EB830008BF20F00100704796
:100B300011F0804F21D113F13872BCBF01F0004099
:100B4000704741F480114FEA5252C2F11802C2F1CB
:100B5000200C10FA0CF320FA02F018BF40F001004C
:100B60004FEAC1234FEAD32303FA0CFC40EA0C00FE
:100B700023FA02F34FEA4303CCE77FEA625307D13B
:100B800050EA01331EBF4FF0FE4040F44000704772
:100B900001F0004040F0FE4040F40000704700BF0C
:100BA00053B94AB9002908BF00281CBF4FF0FF31D4
:100BB0004FF0FF3000F074B9ADF1080C6DE904CED0
:100BC00000F006F8DDF804E0DDE9022304B0704728
:100BD0002DE9F047089E04468846002B4BD18A42F7
:100BE000154667D9B2FA82F24AB1C2F1200701FA7A
:100BF00002F320FA07F7954047EA030894404FEACA
:100C0000154E230CB8FBFEF71FFA85FC0EFB178868
:100C100043EA084307FB0CF1994209D9EB1807F1A5
:100C2000FF3080F01B81994240F21881023F2B4433
:100C30005B1AA4B2B3FBFEF00EFB103344EA03448C
:100C400000FB0CFCA44509D92C1900F1FF3380F0FE
:100C50000781A44540F2048102382C4440EA074051
:100C6000A4EB0C0400271EB1D4400023C6E90043C6
:100C70003946BDE8F0878B4209D9002E00F0EB80A1
:100C80000027C6E9000138463946BDE8F087B3FAC7
:100C900083F7002F47D18B4202D3824200F2FA80C1
:100CA000841A61EB030301209846002EE0D0C6E9C8
:100CB0000048DDE702B9FFDEB2FA82F2002A40F016
:100CC0008F80491B4FEA154E1FFA85F80127B1FBAB
:100CD000FEFC230C0EFB1C1143EA014308FB0CF144
:100CE000994207D9EB180CF1FF3002D2994200F279
:100CF000CD808446591AA3B2B1FBFEF00EFB10144E
:100D000043EA044408FB00F8A04507D92C1900F178
:100D1000FF3302D2A04500F2B6801846A4EB0804C7
:100D200040EA0C409FE7C7F1200CBB4022FA0CFEC2
:100D30004EEA030E01FA07F420FA0CF521FA0CF33F
:100D40004FEA1E482543B3FBF8F92C0C08FB193376
:100D50001FFA8EFA44EA034309FB0AF49C4202FAA2
:100D600007F200FA07F10BD91EEB030309F1FF307C
:100D700080F087809C4240F28480A9F1020973448C
:100D80001B1BADB2B3FBF8F008FB103345EA03447C
:100D900000FB0AFAA24508D91EEB040400F1FF3358
:100DA0006BD2A24569D90238744440EA0940A0FBDD
:100DB0000289A4EB0A044C45C2464B4654D351D099
:100DC000002E69D0B1EB0A0564EB030404FA0CFCB5
:100DD000FD40FC404CEA0505C6E90054002747E702
:100DE000C2F1200320FA03F7954001FA02F021FA3C
:100DF00003F34FEA154E3843010CB3FBFEF71FFA1D
:100E000085F80EFB173341EA034107FB08F38B42D9
:100E100004FA02F407D9691807F1FF3C2FD28B427C
:100E20002DD9023F2944CB1A81B2B3FBFEF00EFB51
:100E3000103341EA034100FB08F38B4207D96918DC
:100E400000F1FF3C17D28B4215D902382944C91A48
:100E500040EA07473BE73746304609E70746E7E6FB
:100E60001846FBE64145ABD2B8EB020A69EB0E022D
:100E700001381346A4E76046E9E7184695E7674658
:100E8000D1E781467CE702382C4447E7ACF1020CFD
:100E90002B442FE7384608E73746E9E60000000014
:100EA000704700BF000000000000000000000000CC
:100EB000844641EA000313F003036DD1403A41D365
:100EC00051F8043B40F8043B51F8043B40F8043B24
:100ED00051F8043B40F8043B51F8043B40F8043B14
:100EE00051F8043B40F8043B51F8043B40F8043B04
:100EF00051F8043B40F8043B51F8043B40F8043BF4
:100F000051F8043B40F8043B51F8043B40F8043BE3
:100F100051F8043B40F8043B51F8043B40F8043BD3
:100F200051F8043B40F8043B51F8043B40F8043BC3
:100F300051F8043B40F8043B51F8043B40F8043BB3
:100F4000403ABDD2303211D351F8043B40F8043B53
:100F500051F8043B40F8043B51F8043B40F8043B93
:100F600051F8043B40F8043B103AEDD20C3205D363
:100F700051F8043B40F8043B043AF9D2043208D05B
:100F8000D2071CBF11F8013B00F8013B01D30B88CD
:100F900003806046704700BF082A13D38B078DD0AB
:100FA00010F003038AD0C3F10403D21ADB071CBF7D
:100FB00011F8013B00F8013B80D331F8023B20F8E7
:100FC000023B7BE7043AD9D3013A11F8013B00F820
:100FD000013BF9D20B7803704B7843708B788370A8
:100FE00060467047000000000000000000000000A4
:100FF00090F800F06DE9024520F007016FF0000C59
:1010000010F0070491F820F040F049804FF0000400
:101010006FF00700D1E9002391F840F000F10800DB
:1010200082FA4CF2A4FA8CF283FA4CF3A2FA8CF313
:101030004BBBD1E9022382FA4CF200F10800A4FA7A
:101040008CF283FA4CF3A2FA8CF3E3B9D1E90423CE
:1010500082FA4CF200F10800A4FA8CF283FA4CF305
:10106000A2FA8CF37BB9D1E9062301F1200182FABF
:101070004CF200F10800A4FA8CF283FA4CF3A2FAC5
:101080008CF3002BC6D0002A04BF04301A4612BAD3
:10109000B2FA82F2FDE8024500EBD2007047D1E9D6
:1010A000002304F00305C4F100004FEAC50514F065
:1010B000040F91F840F00CFA05F562EA05021CBF36
:1010C00063EA050362464FF00004A9E70000000050
:1010D00001F0FF01102A2BDB10F0070F08D010F8E9
:1010E000013B013A8B422DD010F0070F42B3F6D1ED
:1010F000F0B441EA012141EA014122F007047FF006
:1011000000070023F0E80256083C85EA010586EA5C
:10111000010685FA47F5A3FA87F586FA47F6A5FA98
:1011200087F68EB9EED1F0BC01F0FF0102F00702A4
:1011300032B110F8013B013A83EA010313B1F8D14F
:101140000020704701387047002D06BF3546033830
:10115000073815F0010F07D1013015F4807F02BF69
:10116000013015F4C03F0130F0BC0138704700BFBA
:101170004FF0FF3C06E000BF4FF0010C02E000BF63
:101180004FF0010C4DF804CD4FEA410C7FEA6C5C46
:101190004FEA430C18BF7FEA6C5C1BD001B050EAE9
:1011A000410C0CBF52EA430C91EA030F02BF90EAD4
:1011B000020F0020704710F1000F91EA030F58BF93
:1011C000994208BF90422CBFD8176FEAE37040F0F5
:1011D000010070474FEA410C7FEA6C5C02D150EA93
:1011E000013C07D14FEA430C7FEA6C5CD6D152EA4E
:1011F000033CD3D05DF8040B704700BF8446104613
:1012000062468C461946634600E000BF01B5FFF711
:10121000B7FF002848BF10F1000F01BD4DF808EDE1
:10122000FFF7F4FF0CBF012000205DF808FB00BFB2
:101230004DF808EDFFF7EAFF34BF012000205DF80C
:1012400008FB00BF4DF808EDFFF7E0FF94BF012059
:1012500000205DF808FB00BF4DF808EDFFF7CEFF5A
:1012600094BF012000205DF808FB00BF4DF808ED99
:10127000FFF7C4FF34BF012000205DF808FB00BF6A
:101280004FEA410C7FEA6C5C02D150EA013C0AD182
:101290004FEA430C7FEA6C5C02D152EA033C02D174
:1012A0004FF0000070474FF0010070470000000051
:1012B0000EB410B50A4C0B4923680B4883B0019358
:1012C00006AB1A4600930AF023FD019A23689A425E
:1012D00004D103B0BDE8104003B0704700F078F8C7
:1012E0000008002070FC00082C3C002000000000DA
:1012F0002DE9F0412D4BDFF8C8801B682C4F8AB0D8
:101300004646099304F08CF902F062F800F0C0FF41
:10131000284A2949294801F07BFF01F099FE01F094
:101320001FFC01F015FA00F01BFF01F0D9FD01F0E0
:1013300067FC6D460024204601F082FC0134082C35
:1013400045F8040FF7D1D8F854321B681B78042BEA
:1013500003D0322002F07CFEEBE7019A394630469A
:10136000FFF7A6FF029A39463046FFF7A1FF039A1E
:1013700039463046FFF79CFF049A39463046FFF75E
:1013800097FF059A39463046FFF792FF069A39468D
:101390003046FFF78DFF079A39463046FFF788FF42
:1013A000089A39463046FFF783FFD2E7000800204D
:1013B00070FC0008040800200C080020181200200F
:1013C0002C3C002000000000000000000000000095
:1013D00000B5084B83B01A680192019A1B689A42C3
:1013E00005D1054803B05DF804EB02F059B8FFF7EA
:1013F000EFFF00BF0008002050FC000800000000C4
:1014000030B5104D81682B680F4A83B001930B688B
:1014100023F001030B608168946A03E0936A1B1B4D
:10142000C72B09D8086810F00100F7D1019A2B6882
:101430009A4204D103B030BD4FF0FF30F6E7FFF71A
:10144000C7FF00BF00080020C03E002000000000D1
:1014500070B51C4E82B03368019311F00C0F0D462D
:10146000044610D0C268117A52683D238B40136045
:101470000378032B21D0062263682270DB6813B146
:10148000002120469847AA060BD563685B6873B1B4
:1014900001993268914213D1204602B0BDE87040F4
:1014A0001847EB0603D563689B68002BF0D1019ABF
:1014B00033689A4204D102B070BDFFF7A1FFDAE7AA
:1014C000FFF786FF00080020000000000000000079
:1014D000F0B5284D83B02B68019303F059F802F062
:1014E000FFF8254B1E69F20715D55A69234C42F0C7
:1014F00001025A612778BB1F012B2AD90522636894
:1015000022701B680BB120469847042F27D0022F6A
:1015100025D003232370B30710D5174A174C5369FE
:1015200043F0020353612378032B1DD06368DB680B
:101530000622227013B101211048984702F0F8F8F2
:10154000019A2B689A4213D103B0BDE8F04004F031
:1015500027B8019A2B689A420AD103B0F0BD022342
:101560002370B307EAD5D8E72046FFF749FFDDE748
:10157000FFF72EFF00080020000005502412002075
:101580002DE9F0412F4C0578266882B0012D019697
:1015900006D0019A23689A4252D102B0BDE8F08188
:1015A000294DA842F5D10E4690461F46274AE868C5
:1015B0002B460C2106F0DCFD002839D1D5E902329A
:1015C000126828339360EB681A68042151611B6824
:1015D000C3F80C80EB681A6817611B68B6085E6078
:1015E0002B694FB343F480232B61E968184A0968DB
:1015F0000B60EB6819680B6843F001030B60536BD9
:1016000043F0010353630B214E2006F091FAD5E914
:101610000113DA6842F00102DA60DA6842F002028D
:10162000DA600A6922F4804222F001021A60B0E70F
:10163000084801F035FFC1E723F480232B61D4E78C
:10164000FFF7C6FE000800202412002051140008F5
:101650000038024080FC000800000000000000008C
:1016600030B5184C0378226883B0022B019205D064
:10167000019A23689A4223D103B030BD124B98429D
:101680000546F5D18168114A0B6823F4804323F0A5
:1016900001030B608168CB6823F00F03CB60536BB1
:1016A00023F0010353634E2006F06AFA019A23687F
:1016B0009A4205D1E86803B0BDE8304006F0C0BDED
:1016C000FFF786FE000800202412002000380240A8
:1016D00000B50F4B0278196883B0022A01910ED130
:1016E00081680A6842F002020A6081680A6842F46E
:1016F00080420A6081680A6842F001020A60019A29
:101700001B689A4202D103B05DF804FBFFF760FE4C
:1017100000080020000000000000000000000000A1
:1017200000B50F4B0278196883B0022A01910ED1DF
:1017300081680A6822F002020A6081680A6842F43D
:1017400080420A6081680A6842F001020A60019AD8
:101750001B689A4202D103B05DF804FBFFF738FE24
:101760000008002000000000000000000000000051
:101770002DE9F043254D83B02C680194DDF82890C5
:101780000F4616469846044618B111B1204B9A42AE
:101790002FD9204801F084FE202383F3118802F022
:1017A0002FFF01F01DFF2378012B02D0194801F013
:1017B00077FE4246314620464B466760FFF7E0FE23
:1017C0000223237001F02CFF02F032FF124B1A6843
:1017D0009A4204D0996993688A689A420FD3002389
:1017E00083F31188019A2B689A420CD103B0BDE8AB
:1017F000F0839307CDD1B8F1000FCDD1C9E70748E9
:1018000001F04EFEEBE7FFF7E3FD00BF000800200C
:10181000FCFF0300B0FC0008C03E0020A0FC000854
:1018200030B51C4D83B02B680193044658B3202378
:1018300083F3118802F0E4FE01F0D2FE2378022B3C
:1018400002D0154801F02CFE2046FFF709FF0123C6
:10185000237001F0E5FE02F0EBFE104B1A689A428D
:1018600004D0996993688A689A4208D3002383F365
:101870001188019A2B689A4209D103B030BD0848FB
:1018800001F00EFEF2E7044801F00AFECFE7FFF791
:101890009FFD00BF00080020C0FC0008C03E0020E3
:1018A000A0FC000800000000000000000000000094
:1018B00030B51C4D83B02B680193044658B32023E8
:1018C00083F3118802F09CFE01F08AFE2378022B3C
:1018D00002D0154801F0E4FD2046FFF7F9FE04238D
:1018E000237001F09DFE02F0A3FE104B1A689A428D
:1018F00004D0996993688A689A4208D3002383F3D5
:101900001188019A2B689A4209D103B030BD08486A
:1019100001F0C6FDF2E7044801F0C2FDCFE7FFF792
:1019200057FD00BF00080020D0FC0008C03E00208A
:10193000A0FC000800000000000000000000000003
:1019400030B51C4D83B02B680193044658B3202357
:1019500083F3118802F054FE01F042FE2378022B3B
:1019600002D0154801F09CFD2046FFF7D9FE032365
:10197000237001F055FE02F05BFE104B1A689A428C
:1019800004D0996993688A689A4208D3002383F344
:101990001188019A2B689A4209D103B030BD0848DA
:1019A00001F07EFDF2E7044801F07AFDCFE7FFF792
:1019B0000FFD00BF00080020F0FC0008C03E002022
:1019C000A0FC000800000000000000000000000073
:1019D00030B51A4D83B02B680193044638B32023E9
:1019E00083F3118802F00CFE01F0FAFD0223204679
:1019F0002370FFF735FE0123237001F011FE02F082
:101A000017FE0F4B1A689A4204D0996993688A6846
:101A10009A4208D3002383F31188019A2B689A42D3
:101A200009D103B030BD074801F03AFDF2E706489E
:101A300001F036FDD3E7FFF7CBFC00BF0008002024
:101A4000C03E0020A0FC000800FD000800000000CF
:101A500000B5074B07491A68087083B00192019AD4
:101A60001B689A4202D103B05DF804FBFFF7B0FC9B
:101A700000080020381200200000000000000000D4
:101A800000B5174B174A93F90030116883B00191E4
:101A900001995BB1012B18D0022B13680ED099422B
:101AA0004FF0000019D103B05DF804FB13689942B0
:101AB00013D103B05DF804EB00F0DABA99420CD10F
:101AC00003B05DF804EB00F093BA1368994204D1B7
:101AD00003B05DF804EB00F0ABBAFFF779FC00BF90
:101AE0002008002000080020000000000000000086
:101AF00010B51B4B1B4C93F90030226882B0019249
:101B0000B3B1012B21D0022B06D00020019A23680B
:101B10009A4223D102B010BD134B1B788BB1019AAE
:101B200023689A421AD102B0BDE8104000F060BAB2
:101B3000019A23689A4211D102B0BDE8104000F02A
:101B400097BA00F055FA4000E0E7019A23689A42FC
:101B500004D102B0BDE8104000F06ABAFFF738FCCB
:101B600020080020000800202108002000000000BC
:101B7000F0B5124F83B03B68019300F051F9104B60
:101B800093F90030022B064606D0019A3B689A4230
:101B9000304610D103B0F0BD0A4B1C7824B1F4E7F5
:101BA000735D33550134A4B2FFF7A2FF6500ADB2F7
:101BB0008542F5D3E9E7FFF70BFC00BF00080020E2
:101BC0002008002021080020000000000000000084
:101BD00000B5084B08491A6883B000200192019AA9
:101BE0001B6808709A4202D103B05DF804FBFFF74E
:101BF000EFFB00BF000800203F12002000000000A3
:101C000010B5104C82B023680193202383F3118810
:101C100002F026FD01F024FD0B4B0C4801221A7046
:101C200003F026F801F03CFD02F032FD002383F3BF
:101C30001188019A23689A4201D102B010BDFFF7C2
:101C4000C7FB00BF00080020481200202408002025
:101C500010B50F4C0F4B2268197082B020230192EF
:101C600083F3118802F0FCFC01F0FAFC0A4802F050
:101C7000FFFF01F015FD02F00BFD002383F3118837
:101C8000019A23689A4201D102B010BDFFF7A0FB70
:101C9000000800203C120020240800200000000062
:101CA00000B51F4A1F4B127818681F4983B0019076
:101CB00001208242087006D0019A1B689A422CD1FA
:101CC00003B05DF804FB1949194A0978D2688142CA
:101CD000126811D01748184900780968012810685F
:101CE00006D000030ED51069884212D0D160E3E718
:101CF0000003FBD41161DFE7106810490003096895
:101D0000F8D5F3E7D0688842F4D10C49096811612D
:101D1000D2E70A490968D160CEE7FFF759FB00BF57
:101D20003E120020000800203F120020391200203F
:101D3000241200203A1200204012002044120020F9
:101D400030B51B4D1B4C2B78226885B0012B0392BC
:101D500025D0FFF7CDFE184B1B78024653B9B0F5DE
:101D6000164F20D8154900930B6815481549FFF701
:101D7000FFFC0BE0B0F5964F15D813490F4B0968DF
:101D80001B680F4800910F49FFF7F2FC01232B70ED
:101D90000020039A23689A4208D105B030BD084854
:101DA000FFF73EFDD5E74FF0FF30F2E7FFF710FBFE
:101DB0003D120020000800203E12002040120020AA
:101DC0002412002010FD0008441200200000000032
:101DD00010B50F4C0F48236882B0019302F010FE3B
:101DE0000D4802F0EDFF0D4B0A481B7843B102F09D
:101DF0003FFE0020019A23689A4206D102B010BD2E
:101E000002F036FE4FF0FF30F4E7FFF7E1FA00BFD3
:101E1000000800202C080020240800204812002080
:101E200070B5294B294C1878294D236882B001934D
:101E30002B7858B9012B03D0264A012310682B7048
:101E4000019A23689A423DD102B070BD012B37D070
:101E5000214E3378012B33D0204B1B78FBB9204B1C
:101E60001C4ADB6811681B681A68100307D5DA681A
:101E70008A424FF0010221D03270D868E0E71A6937
:101E80008A424FF0010208D032701869D8E71A6907
:101E9000096891424FF00102F6D12A70F5E7FFF789
:101EA00097FF0F4B0B49DB681B681A681203EED5CE
:101EB000DA68096891424FF00102DDD12A70DCE74F
:101EC0000020BDE7FFF784FA3E1200200008002042
:101ED00039120020401200203A1200203F12002048
:101EE000241200200000000000000000000000009C
:101EF00010B5084B084C1A68084882B00192019945
:101F00001A68002391422370037001D102B010BD02
:101F1000FFF75EFA00080020391200203A12002074
:101F200010B5174A174B1278196882B00191F2B1B7
:101F3000154A1648164C1178002202702270154876
:101F400051B101991B680270994216D1124802B032
:101F5000BDE81040FFF7F4BC019A1B6801709A427B
:101F60000BD10D4802B0BDE81040FFF7A1BC019AAB
:101F70001B689A4201D102B010BDFFF729FA00BFD9
:101F80003D120020000800203B1200203A120020E1
:101F90003912002048120020241200200000000006
:101FA00010B50D4B0D4C1A78216882B0012A0191B1
:101FB00008D0019A23689A420CD102B0BDE81040C3
:101FC000FFF7BEBE0649074800220A701A70FFF7E5
:101FD000FFFCEEE7FFF7FCF93D12002000080020AF
:101FE0003C1200202412002000000000000000002D
:101FF00010B50A4B0A4A1988146858881B7982B0B0
:10200000022B019400FB01F00199136818BF4000F6
:10201000994201D102B010BDFFF7DAF94C1200204D
:102020000008002000000000000000000000000088
:1020300010B50A4B0A4A1988146858881B7982B06F
:102040000D2B019400FB01F00199136818BF4000AB
:10205000994201D102B010BDFFF7BAF95412002025
:102060000008002000000000000000000000000048
:1020700010B50A4B0A4A1988146858881B7982B02F
:10208000442B019400FB01F00199136818BF400034
:10209000994201D102B010BDFFF79AF95C120020FD
:1020A0000008002000000000000000000000000008
:1020B00070B5294D82B02B6801930E46032841D894
:1020C000DFE800F01A120A02012922D9234A5369D3
:1020D00083F40063536116E0012926D91F4A53692E
:1020E00083F4806353610EE0012918D91B4A5369B8
:1020F00083F04003536106E001291CD9174A536954
:1021000083F020035361019A2B689A4218D102B0E0
:1021100070BD124B4FF4006229B15A83F3E70F4BA5
:1021200040220029F9D11A83EDE70C4B4FF480626D
:102130000029F8D0F1E7094B20220029F3D0ECE781
:10214000FFF746F90024E0B231460134FFF7B0FF53
:10215000042CF8D1D7E700BF00080020000C024093
:10216000F0B5104F104C3B6883B0002501932E460C
:102170000021E8B2FFF79CFF00F0F2FE68B10135E4
:10218000042D26706670A67004F10304F0D1019A44
:102190003B689A4204D103B0F0BD00F0C9FEEEE7FF
:1021A000FFF716F90008002064120020000000006C
:1021B00030B5094B094D044607CB83B02B6801931A
:1021C000206001982B6861609842A26001D103B041
:1021D00030BDFFF7FDF800BF6412002000080020AA
:1021E0002DE9F043254E83B034680194042A9DF80C
:1021F0002890144605460F46984639D9B9F1000F84
:1022000014BF00224FF08052640002EB0863013CCF
:102210001C4405F00F0527F01F07202383F31188C6
:1022200002F0EEF93D4301F0DBF9154B1035DD60AE
:102230001C6101F0F5F902F0FBF9124B1A689A42A1
:1022400004D0996993688A689A420DD3002383F376
:102250001188BFF36F8FBFF34F8F019A33689A4293
:102260000AD103B0BDE8F083074801F019F9EDE7A2
:10227000064801F015F9C1E7FFF7AAF800080020A9
:1022800090ED00E0C03E0020B0FD000890FD000889
:1022900030B5224D224C2B68224A85B003936368E7
:1022A00043F004036360536A43F480335362202392
:1022B00083F3118802F0A4F901F092F917221A4B66
:1022C000E260236101F0ACF902F0B2F9174B1A6831
:1022D0009A4204D0996993688A689A4218D3002078
:1022E00080F31188BFF36F8FBFF34F8F03231D223D
:1022F00000904FF00051FFF773FF094A536843F015
:1023000001035360039A2B689A4205D105B030BD92
:10231000074801F0C5F8E2E7FFF75AF80008002087
:1023200090ED00E000ED00E009000010C03E00204C
:10233000B0FD0008000000000000000000000000E8
:1023400070B51A4D1A4C1B4E0FCD0FC49EB02A68A3
:10235000336822801D93EFF30981682203A8FEF7FA
:10236000A7FD154B9D6AAA0714D4EB0708D5124B9D
:1023700008995B6B114A00910D4880210AF0B0FA70
:102380001D9A33689A420FD109481EB0BDE87040CB
:1023900001F086B8099A5B6B0092A4F11000084A1C
:1023A00080210AF09DFAE0E7FFF712F874FD0008BB
:1023B000701200200008002000ED00E050FD000831
:1023C00030FD0008000000000000000000000000D8
:1023D00000B51F4B0278196883B00191E2B11D4A24
:1023E0004FF4005111834278EAB11A4A4FF48051F8
:1023F00011838278F2B1174A4FF480411183C27879
:10240000FAB9144A4FF400415183019A1B689A4269
:102410001CD103B05DF804FB0E4A4FF40051518308
:102420004278002AE1D10B4A4FF4805151838278DF
:10243000002AE0D1074A4FF480415183C278002A34
:10244000DFD0044A4FF400411183DEE7FEF7C0FFFE
:102450000008002000100240000000000000000002
:1024600000B51F4B0278196883B00191E2B11D4A93
:102470004FF4007111834278EAB11A4A4FF4807127
:1024800011838278F2B1174A4FF400611183C27848
:10249000FAB9144A4FF480615183019A1B689A4239
:1024A0001CD103B05DF804FB0E4A4FF40071518358
:1024B0004278002AE1D10B4A4FF48071518382782F
:1024C000002AE0D1074A4FF400615183C278002A04
:1024D000DFD0044A4FF480611183DEE7FEF778FF16
:1024E0000008002000100240000000000000000072
:1024F00030B50C4A0C4B116883B04FF40055019174
:102500004FF480544FF400414FF480405D835C836E
:102510005883598301991368994201D103B030BDA2
:10252000FEF756FF000800200010024000000000E7
:1025300030B50C4A0C4B116883B04FF40075019113
:102540004FF480744FF480614FF400605D835C83CE
:102550005883598301991368994201D103B030BD62
:10256000FEF736FF000800200010024000000000C7
:1025700010B50B4C0B48236882B0992200210193BF
:1025800003F0DEFB019A23689A4206D10548002138
:1025900002B0BDE8104003F0BBBCFEF719FF00BF5E
:1025A00000080020A04C00200000000000000000F7
:1025B00010B50B4C0B48236882B09922002101937F
:1025C00003F0BEFB019A23689A4206D10548002118
:1025D00002B0BDE8104003F09BBCFEF7F9FE00BF5F
:1025E00000080020BC4C002000000000000000009B
:1025F00000B5084B83B01A680192019A1B689A4291
:1026000006D10548002103B05DF804EB03F0E8BBF8
:10261000FEF7DEFE00080020A04C002000000000B5
:1026200000B5084B83B01A680192019A1B689A4260
:1026300006D10548002103B05DF804EB03F0D0BBE0
:10264000FEF7C6FE00080020BC4C00200000000081
:1026500070B51A4C1A4E2378326882B0022B019260
:10266000A26811D165781748013505F0070500EB20
:102670008500904763686570013B6360019A336829
:102680009A4219D102B070BD012B08D0019933686C
:10269000994211D10C4802B0BDE8704010476578EE
:1026A0000848013D05F0070500EB85009047636889
:1026B000657001336360E1E7FEF78AFE0C130020CA
:1026C0000008002050FE000840FE00080000000046
:1026D00070B51A4C1A4E2378326882B0012B0192E1
:1026E000A26811D165781748013505F0070500EBA0
:1026F000850090476368657001336360019A3368B1
:102700009A4219D102B070BD022B08D001993368EA
:10271000994211D10C4802B0BDE87040104765786D
:102720000848013D05F0070500EB85009047636808
:102730006570013B6360E1E7FEF74AFEF01200209E
:102740000008002050FE000840FE000800000000C5
:1027500070B51D4E1D4A1E4B30681E491E4C9160BF
:1027600082B00021D46001901C4C1D481D4D9D601D
:10277000117051705160106154611B481B4A1C4D0F
:10278000D8601C48197059705960C3E90425FFF7D7
:102790001FFE1848FFF764FE1749204603F080FA31
:1027A000204603F06DFB2846144903F079FA019A9C
:1027B00033689A4205D1284602B0BDE8704003F064
:1027C0005FBBFEF705FE00BF000800200C130020D1
:1027D000F0120020D123000871250008A04C002031
:1027E000F125000861240008B12500082126000811
:1027F000BC4C002040FE000800FE0008C0FD0008A0
:102800000A490B4B09680B4A82B0202001914021F4
:1028100058834FF4806559834FF400644FF480402F
:1028200004215D835C8358835183FEE70008002008
:10283000000C024000040240000000000000000004
:1028400010B51E491E4A0B78106882B0013B0190FA
:10285000072B0AD8DFE803F012151C1F26290F04E6
:1028600018480824012304830B70019913689942C6
:1028700021D102B010BD08230B70F6E702230B70C4
:10288000F3E711484FF48054032304830B70ECE703
:1028900004230B70E9E70C484FF4804405230483BC
:1028A0000B70E2E706230B70DFE7064804240723DA
:1028B00004830B70D9E7FEF78BFD00BFA81600203C
:1028C0000008002000100240000402400000000048
:1028D00030B50C4B0C4918680C4A83B04FF4804556
:1028E00001904FF480504883042408204D83548382
:1028F0005083019A1B689A4201D103B030BDFEF7A4
:1029000067FD00BF000800200004024000100240E4
:102910002DE9F04F594D5A4AAB695A4E9A61A3B00E
:1029200003AB802205AC30680092CDE903331A4630
:10293000554B219021460AA8CDE905440024CDE954
:10294000074409941C4600F07BFC0AA94F4A5048F2
:10295000DFF860B100F09CFC04F11C08AB6993F84F
:10296000219019F004096FD14A4801F0E9FE4A4B61
:102970004A4819691F681A6AA260C4E900711F6B8E
:102980005969E7605F685A6AA261C4E904715F6BC4
:10299000E7619F6B99699A6AE7629F682762616243
:1029A000DF68D969A262DA6ADB6B61632763E3637C
:1029B0004946A263426A50F8043F9A4296BF9B1A66
:1029C000016403644045F5D1802221460AA800F045
:1029D0008FFCDFF8E4C09CF80030002BBED0DFF89D
:1029E000DCA09AF80090B9F1000F34D0B9F1010FD2
:1029F000B4D12B4ADFF8C8E002F12009714652F841
:102A0000040B51F8043F4A4503440B60F7D1254AB3
:102A100013780133DBB2642B13709FD1224A234811
:102A20005EF8043F8BFB0371DB17C3EB611370454A
:102A300042F8043BF4D100238CF80030AB6993F8E2
:102A4000219019F004098FD0219A33689A4213D14A
:102A500023B0BDE8F08F20224946134809F0F0FE6C
:102A600020224946124809F0EBFE0E4A012382F863
:102A700000908AF8003071E7FEF7AAFCC03E002003
:102A800070FE000800080020B0130020B0FE00080F
:102A9000181200204008002048130020AC1300202A
:102AA000F01300208913002010140020A813002028
:102AB0008C1300201F85EB51881300208A130020FF
:102AC000881300200000000000000000000000004B
:102AD00070B502691E4D52882B6882B006460C46BE
:102AE0001C4801939200002109F0AAFE33695B881B
:102AF0005BB1184AA11E002331F8020F42F8040B03
:102B00003069408801339842F6D8202383F3118836
:102B100001F0A6FD00F0A4FD00F032FE0E4883682F
:102B2000002B0FDD00F0BCFD01F0B2FD002383F3AC
:102B30001188019A2B68094901209A42087004D132
:102B400002B070BD01F034FEECE7FEF741FC00BFBF
:102B5000000800204813002040080020A81600208C
:102B600070B51E4E1E4C3578236884B0012D03933A
:102B700005D0039A23689A422ED104B070BD00217B
:102B8000304602F065FE2B46164A1749304602F0E1
:102B9000DFFE1649164803F083F84FF496720021C1
:102BA000134803F0CDF80021114803F0B1F91048A3
:102BB00003F066F929464FF482720D4803F0C0F81D
:102BC000002300930B480C4B40224FF41E7101F080
:102BD000E7F90A4B1860CCE7FEF7FAFBE445002062
:102BE000000800202813002080FE0008C0FE000816
:102BF000844C00203014002011290008AC13002060
:102C000030B50C4D0C4A2B680C4C83B0002101935D
:102C1000012311702370142001F01AFA2378002B7D
:102C2000F9D1019A2B689A4201D103B030BDFEF769
:102C3000CFFB00BF000800208A130020881300206B
:102C400000B50A4B83B01A68019207289BBF084A57
:102C50001030002052F82000019A1B689A4202D1DD
:102C600003B05DF804FBFEF7B3FB00BF00080020D3
:102C7000B013002000000000000000000000000071
:102C80002DE9F04F884C894AA369894912689961F6
:102C900085B0002332200392029301F0D9F9DFF8C6
:102CA0003082DFF830A2DFF81C92DFF80CB220256A
:102CB00085F3118801F0A4FC00F092FCA66A00F0F4
:102CC000AFFC01F0B5FC2368A34207D0A2699B6862
:102CD00092689A4202D2774800F0E2FB002383F325
:102CE000118885F3118801F08BFC00F079FC98F8CD
:102CF0000030012B00F0A38000F092FC01F098FC62
:102D00002368A34207D0A2699B6892689A4202D2C4
:102D1000684800F0C5FB002383F311889AF800305F
:102D2000012B06D1FFF7FCF8FFF752F8002840F01E
:102D30008A8040F6FC72FF215F4809F081FD5F4BFD
:102D40001B78012B77D04FF06533C9E90033C9F800
:102D500008305B4804F0C4F9574B5A4A58480C21D4
:102D600004F03EFA564804F0FBF900230293029B5C
:102D700042F20F72934206D800BF029B01330293C6
:102D8000029B9342F8D99BF80000FEF761FE9AF887
:102D90000030012B49D19BF80130B72B88D1FEF7C9
:102DA0006FFE494E8308A6FB0323C3F3CF1700979A
:102DB000FEF766FE8308A6FB0323DB09C3EB832330
:102DC000A0EB83030193FEF7D3FE404B18603FB3A3
:102DD00000273E463A4804F083F93C4B38481A68CD
:102DE000354B3A4440F6FC7104F0FAF9344804F0EB
:102DF000B7F900230293062E029B48D943F6972287
:102E0000934206D800BF029B01330293029B934278
:102E1000F8D90136009AB3B29A4207F6FC77D9D8AE
:102E2000019B9BB9FFF764F842E706F13201304697
:102E300001F04EF93CE72348FFF7BAF989E7032090
:102E400000F066FE58E7FFF7ABF831E71C4804F0E6
:102E500047F91E4B009A1E681948174B0199C2EB9F
:102E6000822206EB820204F0BBF9154804F078F9DF
:102E700000230293029B43F697229342D2D800BFCD
:102E8000029B01330293029B9342F8D9CAE741F2B5
:102E900087329342BDD800BF029B01330293029B4D
:102EA0009342F8D9B5E700BFC03E002000080020DB
:102EB00020FF000800FF0008B4160020B016002014
:102EC0001C4C0020302C002001020820AC160020F1
:102ED000B0260020A916002000000000000000001D
:102EE00010B50D4C0D4923680D4884B0039304F0D0
:102EF000AFF80023009340220A4B0B484FF4AF6118
:102F000001F04EF8039A236808499A42086001D1FB
:102F100004B010BDFEF75CFA0008002010FF0008A6
:102F20001C4C0020812C0008B8260020B42600206C
:102F300000B5084B08491A6883B001200192019A34
:102F40001B6808709A4202D103B05DF804FBFEF7DB
:102F50003FFA00BF00080020B0160020000000006B
:102F600000B5074B07491A68087883B00192019AA7
:102F70001B689A4202D103B05DF804FBFEF728FA01
:102F800000080020B0160020000000000000000033
:102F900000B50F4B83B01868019002290CD00329AB
:102FA0000CD001290B4818BF0020019A1B689A42D7
:102FB0000BD103B05DF804FB0748F6E7032A96BF80
:102FC0000648002000EBC200EFE7FEF701FA00BF61
:102FD0000008002010000108B0FF0008C000010830
:102FE00070B5154C82B02368019302291CD10D469F
:102FF0000646202383F3118801F032FB00F030FBFA
:1030000030460E4A012104F0EBF929460C4A3046BD
:1030100004F0E6F90B4803F0BBFE00F041FB01F0C1
:1030200037FB002383F31188019A23689A4201D168
:1030300002B070BDFEF7CCF90008002030FF000898
:1030400060FF00082C3C0020000000000000000091
:1030500030B5134D134C2B68134883B0019303F024
:103060000FFE1249104803F03BFE226D936B23F4D0
:10307000002393634FF47A7000F0EAFF20460C4976
:1030800004F05EF9226D936B43F400239363019A7D
:103090002B689A4201D103B030BDFEF799F900BF09
:1030A00000080020804900202C3C002090FF0008F0
:1030B000A0FF000800000000000000000000000069
:1030C00000B5084B83B01A680192019A1B689A42B6
:1030D00005D1054803B05DF804EB01F091BCFEF7A3
:1030E00077F900BF000800204C0800200000000015
:1030F00000B5084B83B01A680192019A1B689A4286
:1031000005D1054803B05DF804EB01F0B1BCFEF752
:103110005FF900BF000800204C08002000000000FC
:1031200070B50D4C82B0236801930D1E06460DDD6F
:10313000284602F0ADF918B90C2333604FF0FF3088
:10314000019A23689A4205D102B070BD034800F08D
:10315000A7F9EDE7FEF73CF900080020E0000108C0
:1031600000B5064B83B01A680192019A1B689A4217
:1031700002D103B05DF804FBFEF72AF90008002035
:1031800000B5074B83B01A680192019A1B689A42F6
:1031900004D103B05DF804EB01F032BCFEF718F97E
:1031A00000080020000000000000000000000000F7
:1031B00000B5074B83B01A680192019A1B689A42C6
:1031C00004D103B05DF804EB01F052BCFEF700F946
:1031D00000080020000000000000000000000000C7
:1031E00000B5074B83B01A680192019A1B689A4296
:1031F00004D103B05DF804EB01F062BDFEF7E8F81E
:103200000008002000000000000000000000000096
:1032100010B5084B82B01C68019400240460019C26
:103220001B689C42C0E9011201D102B010BDFEF73B
:10323000CFF800BF000800200000000000000000E0
:103240002DE9F0430E4D83B02C6801940446994655
:103250000F46164610304C220021DDF8288009F078
:10326000EFFAC4F80090019A2B68E6609A42C4E92C
:10327000018702D103B0BDE8F083FEF7A9F800BFD3
:103280000008002000000000000000000000000016
:10329000F0B5144E83B001F1100317463268019265
:1032A0000446412218460D46002109F0C9FA394664
:1032B000402209F05DFB6068FFF762FF236803B1FD
:1032C000AB652560A068FFF78BFF019A33689A42CF
:1032D00005D1606803B0BDE8F040FFF769BFFEF7B5
:1032E00077F800BF00080020000000000000000088
:1032F000F0B51C4E436883B0054693423068019098
:1033000006D20020019A33689A4229D103B0F0BD59
:1033100014460F46A868FFF733FF2246394628684F
:10332000FDF7C6FD012385F85130E868FFF758FF27
:103330006C6D84B123681868FFF722FF23689D60D5
:1033400023685868FFF74CFF23681868FFF730FFC1
:103350006468002CEED1A868FFF72AFF0120D1E7AE
:10336000FEF736F800080020000000000000000012
:1033700000B5064B83B01A680192019A1B689A4205
:1033800002D103B05DF804FBFEF722F8000800202C
:10339000024B82B01B680193FEE700BF00080020CB
:1033A00000B5044B04481B6883B0019300F078F823
:1033B000FEE700BF00080020F00001080000000048
:1033C000024B82B01B680193FEE700BF000800209B
:1033D000F0B5294E294B3268294885B00024039264
:1033E0009C60D968274A4FF6FF0529400A43DA60F6
:1033F000C2682549254D42F08072C2600A6842F0D9
:1034000001020A6010202022D87783F8222000F0E1
:10341000DFFA00F045FA01F043F802F011F802F08B
:103420007FF801F095F800F0FBF9402105F5886080
:1034300000F01EFD0127164BC36180F82070A861C3
:1034400000F0A6F884F3118862B6AB69114A9A615C
:103450004FF4C4713A46104B009405F59D6000F09E
:103460009FFD039A33680D4981619A4201D105B0ED
:10347000F0BDFDF7ADFF00BF0008002000ED00E04B
:10348000F0ED00E00003FA05001000E0C03E00206F
:103490000004002070020108C13300081001010877
:1034A00000B5054B83B01B680193044672B6FFF765
:1034B000A7F9024BDC62FEE700080020C03E0020B6
:1034C0002DE9F047DFF890A0224DDAF8003082B005
:1034D000019300F055F9AB6993F8232012B1013A3A
:1034E00083F823205A6ADFF8748001325A6200F0B0
:1034F00047F9AB6AEA6901334245AB6220D0936871
:10350000013B9360EC69A668D6B94FF020092368A7
:10351000E768E660C3F804802368EB6100F0C0F858
:1035200001F0B6F886F311882069B84789F311884D
:1035300001F096F800F094F8EC69A368002BE6D04F
:10354000019ADAF800309A4202D102B0BDE8F08761
:10355000FDF73EFFC03E002000080020DC3E0020BA
:1035600010B5094C094A236882B001935168536829
:103570005B1A9842FBD8019A23689A4201D102B0A3
:1035800010BDFDF725FF00BF00080020001000E07F
:1035900000B50E4A0E4B116B186883B0019009B943
:1035A000526B4AB1019A1B689A420CD1094803B088
:1035B0005DF804EBFFF774BF019A1B689A4202D1D1
:1035C00003B05DF804FBFDF703FF00BFC03E002021
:1035D0000008002020010108000000000000000099
:1035E00030B50B4C0B4D236B2A6883B001920BB99D
:1035F000636B13B10848FFF753FF019A2B68012151
:103600009A42616301D103B030BDFDF7E1FE00BF16
:10361000C03E00200008002050010108000000000A
:1036200030B50C4C0C4D236B2A6883B0019253B912
:10363000636B002B07DD019A2B6800219A426163BE
:1036400005D103B030BD0548FFF72AFFF3E7FDF7CA
:10365000BFFE00BFC03E002000080020700101082E
:1036600030B50B4C0B4D236B2A6883B0002B0192B5
:1036700001DD636B13B10848FFF712FF019A2B6855
:1036800001219A42616301D103B030BDFDF7A0FE74
:10369000C03E00200008002060010108000000007A
:1036A00030B50C4C0C4D236B2A6883B0002B019273
:1036B0000ADD636B002B07DD019A2B6800219A421B
:1036C000616305D103B030BD0448FFF7E9FEF3E7BD
:1036D000FDF77EFEC03E00200008002080010108AA
:1036E00030B50F4D83B02B680193202383F31188ED
:1036F0000C4C236B002B01DB626B1AB10A48FFF7FD
:10370000CFFE236B01332363002383F31188019AD7
:103710002B689A4201D103B030BDFDF759FE00BFBE
:1037200000080020C03E0020300101080000000019
:1037300030B50F4D83B02B680193202383F311889C
:103740000C4C236B002B01DD626B1AB10A48FFF7AA
:10375000A7FE236B013B2363002383F31188019AA7
:103760002B689A4201D103B030BDFDF731FE00BF96
:1037700000080020C03E00204001010800000000B9
:1037800000B50F4A0F4B116B186883B000290190E8
:1037900009DB526B002A06DD019A1B689A420CD1A4
:1037A00003B05DF804FB019A1B689A4205D10648F4
:1037B00003B05DF804EBFFF773BEFDF709FE00BF31
:1037C000C03E002000080020900101080000000019
:1037D00000B50E4A0E4B116B186883B0019049B9C1
:1037E000526B002A06DD019A1B689A420CD103B085
:1037F0005DF804FB019A1B689A4205D1054803B0A5
:103800005DF804EBFFF74CBEFDF7E2FDC03E002083
:1038100000080020A00101080000000000000000D6
:1038200010B5084A084B116882B0402401910199F3
:10383000126818199142C3E90E4001D102B010BDBF
:10384000FDF7C6FD00080020C03E0020000000007B
:1038500010B51149114B0A6882B00192DA6B9C6A6B
:103860001460DA6B9C695460DA6B846A9460DA6B7A
:1038700090F820001073DA6B03F5886010328242F2
:1038800028BF03F14002DA63019A0B689A4201D122
:1038900002B010BDFDF79CFD00080020C03E0020D6
:1038A00010B50B4A0B4B116882B04FF0FF340191F9
:1038B00000219962019811685C6203F11C02884240
:1038C000C3E9072201D102B010BDFDF781FD00BFA1
:1038D00000080020C03E00200000000000000000A2
:1038E0002DE9F041184E82B00546306801900C4633
:1038F00017469846FFF744FF05B3FFB1F4B1C5E999
:1039000003781248C3699A68944204D91B68A41AC0
:103910009A68A242FAD32B605A686A6015605D60AB
:10392000AC609968019D3268091B95424FF0FF34E5
:103930009960446206D102B0BDE8F0810448FFF707
:10394000AFFDDCE7FDF744FD00080020C03E00208D
:10395000B0010108000000000000000000000000AD
:1039600030B5164D83B004462B680193FFF708FF6E
:10397000ECB1E368BBB12268A06893680199034485
:103980009360D4E900231A6020682B680C4A6568AC
:10399000456099424FF000054FF0FF30E5605062FE
:1039A00009D103B030BD0748FFF77AFDE3E70548CA
:1039B000FFF776FDDDE7FDF70BFD00BF00080020F7
:1039C000C03E0020C001010800000000000000000F
:1039D00000B50A4A0A4B11681B6083B000200191B0
:1039E000019912685B609142C3E90433986002D187
:1039F00003B05DF804FBFDF7EBFC00BF00080020FE
:103A0000C03E002000000000000000000000000098
:103A100030B5164D83B004462B680193FFF7B0FE16
:103A2000ECB194F82030B3B10F2B14D00022A16870
:103A30000F4B84F820201B689A688A42FBD22360CF
:103A40005A686260146001992A685C60914220465D
:103A500009D103B030BD0748FFF722FDE6E705486E
:103A6000FFF71EFDDDE7FDF7B3FC00BF00080020F7
:103A7000C03E0020D001010800000000000000004E
:103A800070B5204D82B02B6801930446202383F348
:103A9000118800F0E5FDFFF7E3FD94F82030072BD7
:103AA00011D8DFE803F0161010230A04100AA66AE2
:103AB000FFF766FEB3680133B360D4E900231A60F0
:103AC000D4E900325A604FF0FF33A3622046FFF77B
:103AD0009FFFFFF7E5FD00F0DBFD002383F3118876
:103AE000019A2B689A420BD102B070BDA36A0022E2
:103AF0001A604FF0FF33A3622046FFF789FFE8E723
:103B0000FDF766FC00080020000000000000000037
:103B1000F0B5194E194C336883B007460193FFF78F
:103B200057FEA569236885F82070142285F82320A4
:103B30001A68226001215460284683F82010A3618E
:103B4000FFF786FE2946A06900F03AFDEFF30983EE
:103B5000EA69643B9A4202D90948FFF7A1FC019A3D
:103B600033689A4206D1A069294603B0BDE8F04007
:103B7000FCF79EBBFDF72CFC00080020C03E002097
:103B8000E00101080000000000000000000000004B
:103B9000F0B5154C87B0236805930E460746FFF72E
:103BA00017FE731C18D0114D114AAB693146684697
:103BB000FFF796FE3846FFF7ABFFFFF7E1FD039BEB
:103BC00013B16846FFF7CCFE059A2368A9699A42AB
:103BD000886A06D107B0F0BD3846FFF799FF034D5C
:103BE000F2E7FDF7F5FB00BF00080020C03E002013
:103BF000813A000800000000000000000000000002
:103C0000F0B51E4D1E4E2B6883B0044601930F463F
:103C1000FFF7DEFDB069A7628368A2689A421DD9EA
:103C2000FFF7F6FE0123074684F82030B461FFF762
:103C30000FFE3946204600F0C3FCEFF30983FA6912
:103C4000643B9A4214D8019A2B689A4214D139469F
:103C5000204603B0BDE8F040FCF72ABB019A2B6870
:103C60009A4209D1204603B0BDE8F040FFF7D0BE2C
:103C70000448FFF715FCE6E7FDF7AAFB0008002063
:103C8000C03E0020E001010800000000000000002C
:103C900010B50E490E4B8A69086892F823101C680B
:103CA0008068926882B0019449B9904234BF002084
:103CB0000120019A1B689A4206D102B010BD9042C1
:103CC00094BF00200120F4E7FDF782FBC03E0020F6
:103CD00000080020000000000000000000000000BC
:103CE00070B5184C184E2368A5691A682260546094
:103CF000012283F8202082B01422316885F8232025
:103D00002846A3610191FFF783FE2846FFF7A0FD37
:103D10002946A06900F054FCEFF30983EA69643B8B
:103D20009A4202D90948FFF7BBFB019A33689A42CD
:103D300006D1A069294602B0BDE87040FCF7B8BAC8
:103D4000FDF746FBC03E002000080020E00101080E
:103D500070B51C4D1C4E2A68AC6913682B6001219C
:103D600082B05D60002082F82010AA613268A168EC
:103D700084F82000019200E01B689A688A42FBD810
:103D800023605A686260204614605C60FFF760FD43
:103D90002146A86900F014FCEFF30983E269643B53
:103DA0009A4202D90948FFF77BFB019A33689A428D
:103DB00006D1A869214602B0BDE87040FCF778BA88
:103DC000FDF706FBC03E002000080020E0010108CE
:103DD00010B50F4C82B023680193FFF7F9FCFFF791
:103DE000CFFC0C4B1A689B6992689B689A42019AB7
:103DF000236803D89A4208D102B010BD9A4204D178
:103E000002B0BDE81040FFF7A3BFFDF7E1FA00BF25
:103E100000080020C03E002000000000000000005C
:103E200000B50E4A0E4B9269196892F8232083B0B0
:103E3000019142B1019A1B689A420DD103B05DF81D
:103E400004EBFFF785BF019A1B689A4204D103B0C7
:103E50005DF804EBFFF744BFFDF7BAFAC03E00205F
:103E6000000800200000000000000000000000002A
:103E7000F0B51A4A1A4D02610446816083B01423DA
:103E800050692E68616484F82330022700230121E1
:103E9000278484F82210C4E90F3304F16801A36178
:103EA000019604F12C07636204F1500604F130031B
:103EB00060610461C4E90C33E1613046E76254613A
:103EC00000F086FA304600F0A3FA019A2B689A4275
:103ED00002D1204603B0F0BDFDF77AFAC03E0020C3
:103EE00000080020000000000000000000000000AA
:103EF00010B5094B82B01C680194884203D200F8C7
:103F0000012B8142FBD1019A1B689A4201D102B078
:103F100010BDFDF75DFA00BF0008002000000000A2
:103F20002DE9F043184E83B0346801940546DDF85E
:103F300028900C4617469846FFF722FC15B1B4F5B9
:103F4000BC7F19D21148FFF7ABFAA4F164012944F0
:103F5000E960C1F84080EB68019AC3F84490336887
:103F6000E9680B4808669A420CD13946284603B0E6
:103F7000BDE8F043FFF77CBF7F2FE3D8B8F1000F17
:103F8000E3D1DFE7FDF724FA000800203002010842
:103F9000C90200080000000000000000000000004E
:103FA0002DE9F04FDFF8A48087B0D8F80040DDF8A5
:103FB0004090059407468A46934600F168060446F9
:103FC000FF2504F8015BA642FBD107EB0A05A542D9
:103FD00004D9552604F8016BA542FBD10393202296
:103FE00082F3118800F00CFBFFF7FAFA039BCDF87F
:103FF00000905A4651463846FFF792FF002104468A
:10400000FFF7FEFDFFF70CFB00F012FB0D4B1A68EB
:104010009A4204D0996993688A689A420BD3002324
:1040200083F31188059AD8F800309A42204606D1C9
:1040300007B0BDE8F08F0448FFF732FAEFE7FDF76D
:10404000C7F900BFC03E0020F001010800080020B1
:1040500030B5184C83B0236801930546202383F3C1
:10406000118800F0CDFAFFF7BBFA15B91248FFF737
:1040700017FA29460820FFF78BFDFFF7D1FA00F069
:10408000D7FA0E4B1A689A4204D0996993688A68E5
:104090009A4208D3002383F31188019A23689A4235
:1040A00005D103B030BD0648FFF7FAF9F2E7FDF796
:1040B0008FF900BF0008002000020108C03E002068
:1040C000F0010108000000000000000000000000F6
:1040D000F0B51C4F83B03B68019304460E46202385
:1040E00083F31188184D00F08BFAFFF779FAA96A6B
:1040F000331B0C1B9C4219D3FFF792FA00F098FA7D
:104100002B68AB4204D0AA699B6892689A4209D393
:10411000002383F31188019A3B689A4230460FD1FD
:1041200003B0F0BD0948FFF7BBF9F1E7741A02D1FB
:104130000748FFF7B5F921460820FFF729FDDBE71F
:10414000FDF746F900080020C03E0020F0010108FC
:104150000002010800000000000000000000000054
:1041600070B5164B164E9C693268E36AA06282B045
:1041700004F12C05AB42019207D01A68E26218469E
:10418000FFF746FCE36AAB42F7D194F821309B0776
:1041900005D1D4E904231A61D4E904325A610F200D
:1041A000FFF7B6FC019A33689A4205D1054802B080
:1041B000BDE87040FFF774B9FDF70AF9C03E002072
:1041C000000800204002010800000000000000007C
:1041D00030B50C4C83B0236801930546202383F34C
:1041E000118800F00DFAFFF7FBF9019A23689A4253
:1041F00005D1284603B0BDE83040FFF7B1BFFDF759
:10420000E7F800BF000800200000000000000000E8
:10421000F0B50D4D0D4E03682A68B76983B00446AA
:10422000019213B10A48FFF73BF927600320BC62F3
:10423000FFF76EFC019A2B68B1699A42886A01D136
:1042400003B0F0BDFDF7C4F800080020C03E002018
:104250005002010800000000000000000000000003
:10426000F0B5124D04682B6883B00193B4B194F893
:104270002030032B06460F460CD100233360019AF1
:104280002B68A7629A420FD1204603B0BDE8F040E8
:10429000FFF7BEBB0648FFF703F9EEE7019A2B686C
:1042A0009A4201D103B0F0BDFDF792F8000800205A
:1042B0006002010800000000000000000000000093
:1042C00030B5104A83B01368019381B10E4B019D44
:1042D0009B69186044685C60236012684360954283
:1042E0000DD1042003B0BDE83040FFF751BC019967
:1042F000136899424FF0FF3001D103B030BDFDF794
:1043000067F800BF00080020C03E00200000000049
:1043100070B5124D04682B6882B0A042019315D08D
:1043200023680360586094F82030042B0E4602D0B6
:104330000B48FFF7B5F8019A2B68A6629A420BD199
:10434000204602B0BDE87040FFF762BB019A2B68BF
:104350009A4201D102B070BDFDF73AF80008002082
:104360001002010800000000000000000000000032
:104370002DE9F041DFF850800468D8F8003082B0B1
:10438000A042019313D00F4F05460E4623682B60C1
:104390005D6094F82030042B02D03846FFF780F897
:1043A000A6622046FFF734FB2C68A542EED1019AA5
:1043B000D8F800309A4202D102B0BDE8F081FDF792
:1043C00007F800BF100201080008002000000000EC
:1043D00030B50B4B83B01A6801924FF0FF32026088
:1043E00001991A680024002300259142C0E9044580
:1043F000C0E90133C36001D103B030BDFCF7E8FF71
:104400000008002000000000000000000000000084
:1044100000B5084B084A196883B001915168019AA8
:104420001B6881609A4202D103B05DF804FBFCF77F
:10443000CFFF00BF00080020001000E000000000D7
:10444000F0B51449144B0A68846883B00192134A8A
:104450005B68D2F8A864C2681B1BD0E9044501322E
:104460009B1BC26042688360E61845F100079342D7
:10447000C0E9046709D80268934238BF0360019A13
:104480000B689A4203D103B0F0BD4360F7E7FCF735
:104490009FFF00BF00080020001000E0C03E002089
:1044A00030B5114D114C2B6889B04FF0FF31079397
:1044B000002300226846C4F8A834CDE901330393F1
:1044C0000023CDE904230091FFF7A2FF6846FFF720
:1044D000B7FF079A2B680299C4F8A8149A4201D131
:1044E00009B030BDFCF774FF00080020C03E00207A
:1044F0002DE97048134E144B326883B001925B680B
:104500008B60D0E902411B1BD0E90445426814EBE3
:10451000030B45F1000C01319342C0E90231C0E9BF
:1045200004BC0AD80268934238BF0360019A33681A
:104530009A4204D103B0BDE870884360F6E7FCF707
:1045400047FF00BF00080020001000E0000000004E
:1045500030B50D4D0D4C2B6883B004F59760019379
:104560000023C4F8B034C4F8B434FFF731FF019A23
:104570002B689A4206D104F59A6003B0BDE830403A
:10458000FFF726BFFCF724FF00080020C03E0020F4
:1045900000B50949094A0B6883B001930198D2F824
:1045A000B034096801338842C2F8B03402D103B094
:1045B0005DF804FBFCF70CFF00080020C03E002063
:1045C00070B50D4C0D4A236882B00193019DD2F85D
:1045D000B43424680133A542C2F8B43409D10E467C
:1045E00000F1500106F1500002B0BDE87040FFF745
:1045F0007FBFFCF7EDFE00BF00080020C03E00209A
:1046000000B5084B83B01A680192019A1B689A4260
:1046100005D1054803B05DF804EBFFF7F9BEFCF7E0
:10462000D7FE00BF000800207843002000000000F3
:1046300000B5084B83B01A680192019A1B689A4230
:1046400005D1054803B05DF804EBFFF7F9BEFCF7B0
:10465000BFFE00BF000800207843002000000000DB
:1046600000B5084B83B01A680192019A1B689A4200
:1046700005D1054803B05DF804EBFFF7C9BEFCF7B0
:10468000A7FE00BF000800209043002000000000AB
:1046900000B5084B83B01A680192019A1B689A42D0
:1046A00005D1054803B05DF804EBFFF7C9BEFCF780
:1046B0008FFE00BF00080020904300200000000093
:1046C00070B51B4D82B004462B680193FFF780F84C
:1046D00044B3A3682268002B10DBA24203D0154824
:1046E000FEF7DEFEA368013B002BA3600CDB00207D
:1046F000019A2B689A4219D102B070BDA242EED045
:10470000013B002BA360F2DA0B4EB3699C621C6084
:1047100062685A60052013606360FFF7F9F9B369B6
:10472000986AE5E70348FEF7BBFED2E7FCF750FEC8
:1047300000080020A0020108C03E00200000000088
:1047400030B5164C83B0236801930546202383F3CC
:104750001188FFF755FFFEF743FF2846FFF7B0FF2C
:104760000546FEF75DFFFFF763FF0D4B1A689A429F
:1047700004D0996993688A689A4209D3002383F325
:104780001188019A23689A42284605D103B030BDAA
:104790000448FEF785FEF1E7FCF71AFE000800204A
:1047A000C03E002090020108000000000000000050
:1047B00030B51C4D83B004462B680193FEF7E0FF33
:1047C0004CB3A3682268002B0FDBA24203D016482B
:1047D000FEF766FEA3680133002BA3600BDD019A90
:1047E0002B689A421BD103B030BDA242EFD00133F7
:1047F000002BA360F3DC20680199036823602A681A
:104800005C6091424FF00003836208D103B0BDE8C1
:104810003040FFF7FDB80448FEF742FED1E7FCF751
:10482000D7FD00BF00080020B00201080000000012
:1048300030B50B4D83B02B680193044650B1246012
:1048400001992A68646000239142A360236105D125
:1048500003B030BD0348FEF723FEF0E7FCF7B8FDD8
:1048600000080020D0020108000000000000000045
:10487000F0B55D4E5D4B32689D6983B00446019290
:10488000FEF7A6FF002C00F08480A06823690028B2
:1048900043D0002B40F39780854276D0AA68836886
:1048A0009A4208D990F820308260062B40D0072B1E
:1048B00073D0002B5DD02746234603E09968AA6891
:1048C000914233D31B689C42F8D12F607B686B60A8
:1048D00006201D607D60AC62FFF71AF9A368AB4249
:1048E00002D04348FEF7DCFD2B6CA34202D04048C7
:1048F000FEF7D6FD2369012B05D1019A33689A4250
:104900006FD103B0F0BD019A33689A4269D138483B
:1049100003B0BDE8F040FEF7C3BD002B58D1013312
:10492000A56023612B6CE3602C64E6E71F46CCE7AF
:10493000D0E900231A60D0E900325A60876A3B460A
:1049400003E099688268914247D31B689F42F8D17F
:1049500007607B68436018607860836AAA6898681B
:1049600083689342A7D290F820308260062B9ED1B4
:10497000DEE7D0E90023012180F820101A60D0E999
:1049800000325A60FFF744F895E723690133236149
:10499000B3E71748FEF784FD77E7D0E900231A60F4
:1049A000D0E900325A60876A3B4603E09968826822
:1049B000914214D31B689F42F8D107607B68436023
:1049C0001860786077E70A48FEF76AFDA06863E739
:1049D0000748FEF765FD2369A1E71F46B8E71F46B4
:1049E000EBE7FCF7F5FC00BF00080020C03E00200C
:1049F000E0020108000000000000000000000000CC
:104A000030B5154C83B0236801930546202383F30A
:104A10001188FFF7F5FDFEF7E3FD2846FFF728FFB5
:104A2000FEF7FEFDFFF704FE0C4B1A689A4204D015
:104A3000996993688A689A4208D3002383F311889E
:104A4000019A23689A4205D103B030BD0448FEF7AD
:104A500027FDF2E7FCF7BCFC00080020C03E002068
:104A6000C00201080000000000000000000000007B
:104A70002DE9F043DFF800813C4FD8F80030BE69E3
:104A800083B005460193002864D0202383F3118866
:104A9000FFF7B6FDFEF7A4FD336C002B5ED09B68DC
:104AA000B34202D03248FEF7FBFC2B69002B49DDF4
:104AB000013B2B615BBB336CAB4202D02C48FEF751
:104AC000EFFCEB683364FEF783FE2B689D423ED01B
:104AD000D6E910495CB1FEF77BFE23689C4203D007
:104AE0009B68994538BF9946E468002CF3D1C6F815
:104AF00008902B6801222A611A682A605560AB6011
:104B00001A6CEA6018461D640021FFF779F8FEF779
:104B100087FDFFF78DFD3B68BB4204D0BA699B68F7
:104B200092689A420AD3002383F31188019AD8F835
:104B300000309A4217D103B0BDE8F0830D48FEF76C
:104B4000AFFCF0E70A48FEF7ABFC2B69B0E70023A7
:104B5000AB60DCE70648FEF7A3FC96E70448FEF7E7
:104B60009FFC336C9BE7FCF733FC00BFC03E00208A
:104B7000F0020108C0020108000800200000000047
:104B80002DE9F041DFF8D880334BD8F800209E693A
:104B900082B005460192FEF71BFE002D4FD0336C0C
:104BA000002B52D09B68B34202D02C48FEF778FC11
:104BB0002B69002B3EDD013B2B61002B32D1336C86
:104BC000AB4202D02548FEF76BFCEB683364FEF77E
:104BD000FFFD2B689D4223D0D6E910475CB1FEF75C
:104BE000F7FD23689C4203D09B689F4238BF1F4655
:104BF000E468002CF3D1B7602868019901232B6188
:104C000003682B60D8F800205D60A860036CEB603F
:104C1000914205641ED102B0BDE8F041FEF7F8BE36
:104C20000023AB60019AD8F800309A4212D102B04A
:104C3000BDE8F0810948FEF733FC2B69BBE7074864
:104C4000FEF72EFC336C002BACD10448FEF728FC99
:104C5000336CA7E7FCF7BCFBC03E00200003010853
:104C6000000800200000000000000000000000001C
:104C700070B5114E82B0044633680193FEF780FD93
:104C80009CB12068A0420AD06FF001050368236040
:104C90005C60FEF7BDFE85622068A042F6D1019AF5
:104CA00033689A4205D102B070BD0448FEF7F8FBA4
:104CB000E7E7FCF78DFB00BF000800202003010898
:104CC00030B5164C83B0236801930546202383F347
:104CD0001188FFF795FCFEF783FC2846FFF7C8FF15
:104CE000FFF776F8FEF79CFCFFF7A2FC0C4B1A6866
:104CF0009A4204D0996993688A689A4208D300233B
:104D000083F31188019A23689A4205D103B030BD1C
:104D10000448FEF7C5FBF2E7FCF75AFB0008002049
:104D2000C03E002010030108000000000000000049
:104D30002DE9F0411E4F1F4E3B68B46982B0054615
:104D40000193FEF745FD65B3236C33B3B369D3F824
:104D500040804046FFF714FF2E46A5622B4603E035
:104D60009968A268914216D31B689D42F8D12660CB
:104D70007368636007201C607460FEF7C9FE4046DC
:104D8000A46AFFF775FD019A3B689A4220460CD150
:104D900002B0BDE8F0811E46E9E70748FEF780FB58
:104DA000D4E70548FEF77CFBCEE7FCF711FB00BF1C
:104DB00000080020C03E0020400301080000000061
:104DC00030B5164C83B0236801930546202383F346
:104DD0001188FFF715FCFEF703FC2846FFF7A8FF34
:104DE0000546FEF71DFCFFF723FC0D4B1A689A429F
:104DF00004D0996993688A689A4209D3002383F39F
:104E00001188019A23689A42284605D103B030BD23
:104E10000448FEF745FBF1E7FCF7DAFA000800204A
:104E2000C03E002010030108000000000000000048
:104E300070B5184E82B00446336801930D46FEF7F4
:104E40009FFC0CB3E16B94F8203029430A2BE163FB
:104E500016D00B2B05D0019A33689A4218D102B0B4
:104E600070BDA36A8B43F6D1019A336800219A4240
:104E7000A1620DD1204602B0BDE87040FEF7C8BD6A
:104E8000A36A1942F0D1E6E70348FEF709FBD9E728
:104E9000FCF79EFA000800207003010800000000E3
:104EA000F0B5134F83B006463B6801930D46FEF7FD
:104EB00067FCB6B13468A6420DD0E3682B43E360CB
:104EC00015B12269134203D0D4E90101FFF7B0FF05
:104ED0002468A642F1D1019A3B689A4205D103B0F9
:104EE000F0BD0448FEF7DCFAE4E7FCF771FA00BF16
:104EF000000800205003010800000000000000002E
:104F000070B50C4CC16082B0266801960A440060FE
:104F1000019E02612268069D4060C0E9051196422B
:104F20004FF00001C3618160056201D102B070BD24
:104F3000FCF74EFA0008002000000000000000000E
:104F400030B50D4D83B02B6801930446FEF718FC75
:104F500001992A68E368A36100209142A06063611F
:104F600007D120466FF0010103B0BDE83040FFF7E4
:104F7000FFB9FCF72DFA00BF000800200000000078
:104F800070B5164D82B004462B6801930E46FEF7AD
:104F9000F7FBFEF7F5FBD4E905239A42A36816D088
:104FA0000133511CA36061611670D4E904329A4246
:104FB0000AD220460021FFF7ABF90020019A2B68A6
:104FC0009A4209D102B070BDE3686361F1E7002B3A
:104FD000E6D06FF00300F1E7FCF7FAF900080020D3
:104FE000F0B5234F83B03B68019304460E4620235F
:104FF00083F31188FFF704FBFEF7F2FAE36943B18C
:105000002046984705E031462046FFF759F9051E2E
:1050100010DBFEF7B5FBA368002BF4D0A169206973
:105020004A1C013B8242A360A26128BFE3680D785D
:1050300028BFA361FEF7F4FAFFF7FAFA0D4B1A68DE
:105040009A4204D0996993688A689A4209D30023E6
:1050500083F31188019A3B689A42284605D103B030
:10506000F0BD0548FEF71CFAF1E7FCF7B1F900BF07
:1050700000080020C03E002080030108000000005E
:105080002DE9F04FDFF8F490044685B0D9F8000020
:1050900003908A461D46D4F81C809346002A60D0AF
:1050A000202383F311880193FFF7AAFAFEF798FAF9
:1050B0002F4E0027B8F1000F07D02046C04704E06C
:1050C00029462046FFF7FCF860BBFEF759FBA368B2
:1050D000002BF5D0A269013B511CA161A36013789C
:1050E0000AF8013B2369A2699A4224BFE368A361DD
:1050F000FEF796FAFFF79CFA3368B34204D0B26920
:105100009B6892689A4228D3002383F31188013761
:10511000BB4519D0019B83F31188FFF771FAFEF7A5
:105120005FFAC7E7FEF77CFAFFF782FA3368B3420B
:1051300007D0B2699B6892689A4202D20D48FEF786
:10514000AFF9002383F31188039AD9F800309A420B
:1051500038460AD105B0BDE8F08F0648FEF7A0F941
:10516000D2E70548FEF79CF99AE7FCF731F900BF52
:10517000C03E0020800301089003010800080020C1
:1051800070B50B4D82602E68C16082B0C0E900002E
:1051900001960A44019E02612A68069C9642C0E973
:1051A0000511C0E9073401D102B070BDFCF710F958
:1051B00000080020000000000000000000000000C7
:1051C00030B50D4D83B004462B680193FEF7D8FA35
:1051D000D4E9032301982968A2619B1A884262617D
:1051E000A36007D120466FF0010103B0BDE8304055
:1051F000FFF7BEB8FCF7ECF8000800200000000044
:105200002DE9F0412E4F82B03B6801930446884659
:105210001646202383F31188FFF7F2F9FEF7E0F931
:1052200005E031462046FFF74BF8051E2DDBFEF763
:10523000A7FAA368002BF4D06269013B511C61619D
:10524000A36082F80080D4E904329A4224BFE36864
:105250006361E3690BB120469847FEF7E1F9FFF778
:10526000E7F9184B1A689A4204D0996993688A68DA
:105270009A421ED3002585F31188019A3B689A4211
:1052800028461AD102B0BDE8F081FEF7C9F9FFF750
:10529000CFF90C4B1A689A4207D0996993688A68CB
:1052A0009A4202D20848FEF7FBF8002383F31188E4
:1052B000E3E70548FEF7F4F8DCE7FCF789F800BF00
:1052C00000080020C03E002080030108000000000C
:1052D00070B5154E82B0044633680193FEF750FA5C
:1052E000FEF74EFAD4E905329342A36815D020693F
:1052F000511C0133A360A161814215780AD2204676
:105300000021FFF705F82846019A33689A4209D12F
:1053100002B070BDE368A361F1E7002BE7D06FF046
:105320000200F1E7FCF754F800080020000000003C
:105330002DE9F04F04463B48D4F81C90006885B036
:105340000D46039001931646002A61D04FF0200AC3
:105350008AF31188FFF754F9FEF742F94FF000087D
:10536000314FC346FEF70CFAA368002B32D06269B6
:10537000013B511C6161A3602B781370D4E90432A6
:105380009A4224BFE36863610135B9F1000F01D08F
:105390002046C847FEF744F9FFF74AF93B68BB428D
:1053A00007D0BA699B6892689A4202D21F48FEF7FA
:1053B00077F88BF31188013E08F101081FD08AF3BA
:1053C0001188FFF71DF9FEF70BF9FEF7D9F9A3686D
:1053D000002BCCD101992046FEF772FF0028C1D0E6
:1053E000FEF71EF9FFF724F93B68BB4204D0BA6907
:1053F0009B6892689A420FD3002383F31188094B6C
:10540000039A1B689A4240460AD105B0BDE8F08F66
:105410000748FEF745F899E70448FEF741F8EBE73F
:10542000FBF7D6FF00080020C03E002080030108E3
:10543000A0030108000000000000000000000000C0
:1054400030B50B490B4A0B680B4D0C4C83B022F066
:105450000702019301980A4B09682A6023F00703A9
:105460008842236001D103B030BDFBF7B1FF00BF1C
:1054700000080020874E00203445002030450020E1
:1054800000000220000000000000000000000000FA
:1054900070B51C4E82B0336801930446202383F319
:1054A0001188FFF7ADF8FEF79BF8FEF769F9164A89
:1054B000164B15681B68E01D20F007005B1B984227
:1054C0009ABF401910600025FEF7AAF8FFF7B0F860
:1054D0000F4B1A689A4204D0996993688A689A4275
:1054E00009D3002383F31188019A33689A4228462E
:1054F00005D102B070BD0748FDF7D2FFF1E7FBF719
:1055000067FF00BF00080020344500203045002020
:10551000C03E0020C00301080000000000000000A1
:1055200000B50B4B0B481A6883B0019201991A68B9
:10553000094B036091424FF00003C0E9023305D1EB
:10554000103003B05DF804EBFFF772B9FBF740FFD2
:105550000008002038450020915400080000000099
:1055600080B50D4A0D4982B000AF13687B604B686F
:1055700023F001034B60EFF30983683383F3098859
:10558000002383F3118879681368994202D10837A0
:10559000BD4680BDFBF71CFF0008002030EF00E097
:1055A000B0B5194C82B000AF23687B60202383F331
:1055B0001188164B5B6813F4006308D183F31188DC
:1055C0007A6823689A421DD10837BD46B0BDF1EE16
:1055D000103AEFF309854FF080720D4B45F84C2CD3
:1055E000DB6845F8083CA5F1680383F30988FEF7FA
:1055F0004FFB18B1074B45F8503CE1E7064B45F827
:10560000503CDDE7FBF7E4FE0008002000ED00E081
:1056100030EF00E0E1020008F402000800000000A2
:1056200010B5184C82B02368019302F049FE164869
:1056300004F0DEFA00F0D4F800F0CAF900F010FA35
:1056400000F03EFA00F06CFA00F09AFA00F0C8FAA6
:1056500000F0F6FA01F0FCF801F002F801F0C8FCE5
:1056600001F036FE01F0FCFA06F042FB019A2368D5
:105670009A4204D102B0BDE8104001F011BEFBF720
:10568000A7FE00BF00080020C009010800000000BC
:10569000F0B51A4D83B02B68019391420E46144623
:1056A000074619D38B1A1F2B16D806F01F03581C58
:1056B0006209012376098340B24203F1FF3304F00B
:1056C0001F0457F822000BD31840E040019A2B68C2
:1056D0009A4210D103B0F0BD0948FDF7E1FEE4E7BE
:1056E00057F82610C4F120020B4020FA04F403FA04
:1056F00002F02043EAE7FBF76BFE00BF0008002042
:10570000D0030108000000000000000000000000BD
:10571000F0B51D4E83B033680193054670B37E2209
:105720007F212846FFF7B4FF80B1012806D0002072
:10573000019A33689A4225D103B0F0BD2846302241
:105740004521FFF7A5FF01308002F1E73E22492104
:105750002846FFF79DFF2F22044631212846FFF7F8
:1057600097FF5022074653212846FFF791FF013447
:1057700002370938BC4004FA00F0D9E70348FDF7C6
:105780008FFECCE7FBF724FE00080020F0030108A1
:10579000F0B5104D83B02B680193044698B194F88E
:1057A000D63094F8D770019994F8D4602A6894F8A8
:1057B000D5001B0403EB07633344914203EB002045
:1057C00005D103B0F0BD0448FDF76AFEE7E7FBF73B
:1057D000FFFD00BF000800201004010800000000C9
:1057E00000B5074B83B01A680192019A1B689A4270
:1057F00004D103B05DF804EB02F022BEFBF7E8FD34
:105800000008002000000000000000000000000070
:1058100000B50C4B83B01A68019201220270019905
:105820001A6800239142C0E90133C0E903334361A0
:1058300005D1183003B05DF804EBFEF7F9BFFBF7B4
:10584000C7FD00BF000800200000000000000000AD
:1058500070B51D4D82B02B6801930E46044668B3A7
:10586000202383F31188FEF7CBFEFDF7B9FE2378E2
:10587000013B012B02D91548FDF712FE2046666058
:1058800002F02EFE02232370FDF7CAFEFEF7D0FEC3
:105890000F4B1A689A4204D0996993688A689A42B1
:1058A00008D3002383F31188019A2B689A4209D107
:1058B00002B070BD0748FDF7F3FDF2E70348FDF7BE
:1058C000EFFDCDE7FBF784FD000800204004010850
:1058D000C03E00203004010800000000000000006D
:1058E0002DE9F041174D82B00446286801900E461C
:1058F00090461F46FDF744FF3CB136B1B8F1000FAA
:1059000003D0012F04D0FB0702D50F48FDF7C8FDD7
:105910002378022B05D0043B012B02D90A48FDF75E
:10592000BFFD03232370019A2B6826619A42C4E9C4
:10593000028705D1204602B0BDE8F04102F050BE1A
:10594000FBF746FD0008002050040108000000009D
:105950002DE9F041184C82B025680195984605461E
:105960000E461746202383F31188FEF749FEFDF704
:1059700037FE43463A4631462846FFF7B1FFFDF76A
:105980004FFEFEF755FE0D4B1A689A4204D09969F6
:1059900093688A689A4209D3002383F31188019A95
:1059A00023689A4206D102B0BDE8F0810448FDF7B1
:1059B00077FDF1E7FBF70CFD00080020C03E00205A
:1059C000300401080000000000000000000000009A
:1059D00000B5074B83B01A680192019A1B689A427E
:1059E00004D103B05DF804EB03F04ABCFBF7F0FC14
:1059F000000800200000000000000000000000007F
:105A000030B5134B83B01A68019201220270019CD9
:105A10001968002200F1180300F11C05426083613F
:105A200000F1200200F12403C561026200F12805A3
:105A300000F1080243628C4200F110038562C0E964
:105A40000222C0E9043301D103B030BDFBF7C0FC32
:105A5000000800200000000000000000000000001E
:105A600000B5074B83B01A680192019A1B689A42ED
:105A700004D103B05DF804EB04F09AB8FBF7A8FC7E
:105A800000080020000000000000000000000000EE
:105A900000B50A4B83B01A68019201220270019985
:105AA0001A6800239142C0E9043305D1183003B0CD
:105AB0005DF804EBFEF7BCBEFBF78AFC0008002093
:105AC00000B5074B83B01A680192019A1B689A428D
:105AD00004D103B05DF804EB03F0F2BBFBF778FCF4
